{
  "contractName": "PaymentProcessor",
  "abi": [
    {
      "inputs": [
        {
          "internalType": "address",
          "name": "adminAddress",
          "type": "address"
        },
        {
          "internalType": "address",
          "name": "daiAddress",
          "type": "address"
        }
      ],
      "stateMutability": "nonpayable",
      "type": "constructor"
    },
    {
      "anonymous": false,
      "inputs": [
        {
          "indexed": false,
          "internalType": "address",
          "name": "payer",
          "type": "address"
        },
        {
          "indexed": false,
          "internalType": "uint256",
          "name": "amount",
          "type": "uint256"
        },
        {
          "indexed": false,
          "internalType": "uint256",
          "name": "paymentId",
          "type": "uint256"
        },
        {
          "indexed": false,
          "internalType": "uint256",
          "name": "date",
          "type": "uint256"
        }
      ],
      "name": "PaymentDone",
      "type": "event"
    },
    {
      "inputs": [],
      "name": "admin",
      "outputs": [
        {
          "internalType": "address",
          "name": "",
          "type": "address"
        }
      ],
      "stateMutability": "view",
      "type": "function",
      "constant": true
    },
    {
      "inputs": [],
      "name": "dai",
      "outputs": [
        {
          "internalType": "contract IERC20",
          "name": "",
          "type": "address"
        }
      ],
      "stateMutability": "view",
      "type": "function",
      "constant": true
    },
    {
      "inputs": [
        {
          "internalType": "uint256",
          "name": "amount",
          "type": "uint256"
        },
        {
          "internalType": "uint256",
          "name": "paymentId",
          "type": "uint256"
        }
      ],
      "name": "pay",
      "outputs": [],
      "stateMutability": "nonpayable",
      "type": "function"
    }
  ],
  "bytecode": "0x608060405234801561001057600080fd5b506040516105cf3803806105cf8339818101604052810190610032919061011d565b816000806101000a81548173ffffffffffffffffffffffffffffffffffffffff021916908373ffffffffffffffffffffffffffffffffffffffff16021790555080600160006101000a81548173ffffffffffffffffffffffffffffffffffffffff021916908373ffffffffffffffffffffffffffffffffffffffff160217905550505061015d565b600080fd5b600073ffffffffffffffffffffffffffffffffffffffff82169050919050565b60006100ea826100bf565b9050919050565b6100fa816100df565b811461010557600080fd5b50565b600081519050610117816100f1565b92915050565b60008060408385031215610134576101336100ba565b5b600061014285828601610108565b925050602061015385828601610108565b9150509250929050565b6104638061016c6000396000f3fe608060405234801561001057600080fd5b50600436106100415760003560e01c8063ef48eee614610046578063f4b9fa7514610062578063f851a44014610080575b600080fd5b610060600480360381019061005b9190610227565b61009e565b005b61006a6101a2565b60405161007791906102e6565b60405180910390f35b6100886101c8565b6040516100959190610322565b60405180910390f35b600160009054906101000a900473ffffffffffffffffffffffffffffffffffffffff1673ffffffffffffffffffffffffffffffffffffffff166323b872dd3360008054906101000a900473ffffffffffffffffffffffffffffffffffffffff16856040518463ffffffff1660e01b815260040161011d9392919061034c565b6020604051808303816000875af115801561013c573d6000803e3d6000fd5b505050506040513d601f19601f8201168201806040525081019061016091906103bb565b507f78eaebe37a28490ff43ed0e95bdc47de1587156ac0069b652e1d2d9f42464e983383834260405161019694939291906103e8565b60405180910390a15050565b600160009054906101000a900473ffffffffffffffffffffffffffffffffffffffff1681565b60008054906101000a900473ffffffffffffffffffffffffffffffffffffffff1681565b600080fd5b6000819050919050565b610204816101f1565b811461020f57600080fd5b50565b600081359050610221816101fb565b92915050565b6000806040838503121561023e5761023d6101ec565b5b600061024c85828601610212565b925050602061025d85828601610212565b9150509250929050565b600073ffffffffffffffffffffffffffffffffffffffff82169050919050565b6000819050919050565b60006102ac6102a76102a284610267565b610287565b610267565b9050919050565b60006102be82610291565b9050919050565b60006102d0826102b3565b9050919050565b6102e0816102c5565b82525050565b60006020820190506102fb60008301846102d7565b92915050565b600061030c82610267565b9050919050565b61031c81610301565b82525050565b60006020820190506103376000830184610313565b92915050565b610346816101f1565b82525050565b60006060820190506103616000830186610313565b61036e6020830185610313565b61037b604083018461033d565b949350505050565b60008115159050919050565b61039881610383565b81146103a357600080fd5b50565b6000815190506103b58161038f565b92915050565b6000602082840312156103d1576103d06101ec565b5b60006103df848285016103a6565b91505092915050565b60006080820190506103fd6000830187610313565b61040a602083018661033d565b610417604083018561033d565b610424606083018461033d565b9594505050505056fea2646970667358221220daec3111b17eca5f924cde9a4061694cc6dee72afc062a2ef7e98ebb046cd65c64736f6c634300080a0033",
  "immutableReferences": {},
  "source": "// SPDX-License-Identifier: GPL-3.0\n\npragma solidity ^0.8.10;\n\nimport '@openzeppelin/contracts/token/ERC20/IERC20.sol';\n\ncontract PaymentProcessor {\n    address public admin;\n    IERC20 public dai;\n\n    event PaymentDone (\n        address payer, \n        uint amount,\n        uint paymentId,\n        uint date\n    );\n\n    constructor(address adminAddress, address daiAddress) public {\n        admin = adminAddress;\n        dai = IERC20(daiAddress);\n    }\n\n    function pay(uint amount, uint paymentId) external {\n        dai.transferFrom(msg.sender, admin, amount);\n        emit PaymentDone(msg.sender, amount, paymentId, block.timestamp);\n    }\n\n\n}\n",
  "sourcePath": "/Users/sercan.celenk/development/workspace/blockchain/js/ecommerce-dapp/contracts/contracts/PaymentProcessor.sol",
  "compiler": {
    "name": "solc",
    "version": "0.8.10+commit.fc410830.Emscripten.clang"
  },
  "schemaVersion": "3.4.3",
  "updatedAt": "2021-12-16T19:40:06.641Z",
  "networkType": "ethereum",
  "devdoc": {
    "kind": "dev",
    "methods": {},
    "version": 1
  },
  "userdoc": {
    "kind": "user",
    "methods": {},
    "version": 1
  }
}